{
  "contractName": "Axion",
  "abi": [
    {
      "anonymous": false,
      "inputs": [
        {
          "indexed": false,
          "internalType": "address",
          "name": "_from",
          "type": "address"
        },
        {
          "indexed": false,
          "internalType": "address",
          "name": "_to",
          "type": "address"
        },
        {
          "indexed": false,
          "internalType": "uint256",
          "name": "_amount",
          "type": "uint256"
        }
      ],
      "name": "PaymentComplete",
      "type": "event"
    },
    {
      "inputs": [
        {
          "internalType": "address payable",
          "name": "_to",
          "type": "address"
        },
        {
          "internalType": "uint256",
          "name": "_amount",
          "type": "uint256"
        }
      ],
      "name": "sendEther",
      "outputs": [],
      "stateMutability": "payable",
      "type": "function",
      "payable": true
    }
  ],
  "bytecode": "0x608060405234801561001057600080fd5b506101a1806100206000396000f3fe60806040526004361061001e5760003560e01c8063c1756a2c14610023575b600080fd5b61006f6004803603604081101561003957600080fd5b81019080803573ffffffffffffffffffffffffffffffffffffffff16906020019092919080359060200190929190505050610071565b005b6000670de0b6b3a7640000820290508273ffffffffffffffffffffffffffffffffffffffff166108fc829081150290604051600060405180830381858888f193505050501580156100c6573d6000803e3d6000fd5b507f93b8cdfb92178adb732539e3f1163c067c34cf0a86fe0dbfa744ac513f6fed66338484604051808473ffffffffffffffffffffffffffffffffffffffff1673ffffffffffffffffffffffffffffffffffffffff1681526020018373ffffffffffffffffffffffffffffffffffffffff1673ffffffffffffffffffffffffffffffffffffffff168152602001828152602001935050505060405180910390a150505056fea2646970667358221220f49c6b81b9960bf2997754ad02f430eb9f31d8522584c252e7118752d969b62864736f6c63430006000033",
  "source": "pragma solidity ^0.6.0;\r\n\r\ncontract Axion {\r\n    \r\n    event PaymentComplete (\r\n        address _from,\r\n        address _to,\r\n        uint256 _amount\r\n    );\r\n\r\n    function sendEther(\r\n        address payable _to,\r\n        uint256 _amount\r\n    ) public payable {\r\n        uint256 amount = _amount * 10 ** 18;\r\n        _to.transfer(amount);\r\n        emit PaymentComplete(msg.sender, _to, _amount);\r\n    }\r\n}",
  "sourcePath": "C:/Users/shlok/Desktop/programs/hackathons/hackofiesta/crypto-checkout/src/smart-contract/contracts/Axion.sol",
  "compiler": {
    "name": "solc",
    "version": "0.6.0+commit.26b70077.Emscripten.clang"
  },
  "schemaVersion": "3.3.4",
  "updatedAt": "2021-04-17T08:53:15.409Z",
  "networkType": "ethereum",
  "devdoc": {
    "methods": {}
  },
  "userdoc": {
    "methods": {}
  }
}